S00F00004779726F4F6E652E7372656352
S11300000C942A000C9447000C9447000C9447006D
S11300100C9447000C9447000C9447000C94470040
S11300200C9447000C9447000C9447000C94341033
S11300300C9447000C9447000C9447000C94470020
S11300400C9447000C9447000C9447000C94470010
S11300500C94470011241FBECFE5D8E0DEBFCDBF0E
S113006011E0A0E6B0E0EEE2F5E202C005900D92E8
S1130070AC31B107D9F721E0ACE1B1E001C01D9288
S1130080AB34B207E1F70E94E8060C9495120C9485
S1130090000087B3876087BB0895C19AC19808950B
S11300A0C29AC2980895CF92DF92EF92FF920F9373
S11300B01F93CF93DF93C82ED62EF42E122FC0E0B9
S11300C0D0E0C830D10560F4EE2014F4C09A01C029
S11300D0C0980E944D008E2D880F8160E82E39C093
S11300E0C031D10550F4002314F4C09A01C0C09863
S11300F00E944D00000F01602CC0C831D10548F4A6
S1130100112314F4C09A01C0C0980E944D00110F2D
S113011020C0C032D10548F4FF2014F4C09A01C0B5
S1130120C0980E944D00FF0C14C0C832D10548F499
S1130130DD2014F4C09A01C0C0980E944D00DD0C6B
S113014008C0CC2014F4C09A01C0C0980E944D008D
S1130150CC0C2196C033D10509F0B3CF0E945000D6
S1130160DF91CF911F910F91FF90EF90DF90CF908F
S113017008951092220110922101109220011092F0
S11301801F01089584E090E090936A0080936900D1
S113019089E090E0909368008093670081E090E0AC
S11301A0909366008093650010921C019FEF9093DA
S11301B064008FEE8093630021E0209362009093AB
S11301C0610080936000089582E090E0909376004F
S11301D08093750020E130E0309374002093730025
S11301E0909372008093710010921E0110921D0171
S11301F081E08093700093EC90936F008FEF809375
S11302006E0020E820936D0090936C0080936B0047
S11302100895EF920F93E0906C0000916B00209191
S11302206D0040916F0060916E00809170000E949B
S11302305300E090610000916000209162004091C1
S113024064006091630080911C010E9453000F912F
S1130250EF90089580917300909174008A30910515
S113026054F020916D00269520936D000197909392
S113027074008093730082ED99E00197F1F700C058
S1130280000008958091730090917400803191056D
S113029054F420916D00220F20936D0001969093E9
S11302A074008093730082ED99E00197F1F700C028
S11302B00000089580917500909176008430910536
S11302C05CF420916C002695206820936C000196C4
S11302D0909376008093750082ED99E00197F1F791
S11302E000C0000008958091750090917600181662
S11302F019065CF420916C00220F216020936C009D
S11303000197909376008093750082ED99E00197B0
S1130310F1F700C00000089580911D0190911E0125
S11303208730910554F420917000220F20937000BF
S1130330019690931E0180931D0182ED99E001972F
S1130340F1F700C00000089580911D0190911E01F5
S11303501816190654F42091700026952093700005
S1130360019790931E0180931D0182ED99E00197FE
S1130370F1F700C00000089580917100909172001F
S1130380181619065CF420916F00220F2160209347
S11303906F000197909372008093710082ED99E051
S11303A00197F1F700C000000895809171009091C9
S11303B07200843091055CF420916F0026952068CA
S11303C020936F000196909372008093710082EDE8
S11303D099E00197F1F700C000000895672B09F038
S11303E09FC0009711F4D89808958130910511F4B5
S11303F0D99808958230910511F4DA9808958330DC
S1130400910511F4DB9808958430910511F4DC987A
S113041008958530910511F4DD980895863091058D
S113042011F4DE9808958730910511F4DF9808954A
S11304308A30910511F4C09808958B30910511F418
S1130440C19808958C30910511F4C29808958D30A7
S1130450910511F4C39808958E30910511F4C49850
S113046008958F30910511F4C59808958031910550
S113047011F4C69808958131910511F4C79808952F
S11304808431910511F4A89808958531910511F4EA
S1130490A99808958631910511F4AA980895873191
S11304A0910511F4AB9808958831910511F4AC9835
S11304B008958931910511F4AD9808958A31910513
S11304C011F4AE9808958B31910511F4AF98089505
S11304D08E31910511F4909808958F31910511F49E
S11304E0919808958032910511F49298089581327B
S11304F0910511F4939808958232910511F494981A
S113050008958332910511F49598089584329105E4
S113051011F496980895859709F09FC097980895C7
S1130520009711F4D89A08958130910511F4D99A5D
S113053008958230910511F4DA9A08958330910573
S113054011F4DB9A08958430910511F4DC9A08952E
S11305508530910511F4DD9A08958630910511F4E2
S1130560DE9A08958730910511F4DF9A08958A3050
S1130570910511F4C09A08958B30910511F4C19A34
S113058008958C30910511F4C29A08958D30910527
S113059011F4C39A08958E30910511F4C49A089504
S11305A08F30910511F4C59A08958031910511F4A5
S11305B0C69A08958131910511F4C79A089584313A
S11305C0910511F4A89A08958531910511F4A99A19
S11305D008958631910511F4AA9A089587319105F9
S11305E011F4AB9A08958831910511F4AC9A0895E9
S11305F08931910511F4AD9A08958A31910511F468
S1130600AE9A08958B31910511F4AF9A08958E3105
S1130610910511F4909A08958F31910511F4919AEE
S113062008958032910511F4929A089581329105CA
S113063011F4939A08958232910511F4949A0895CD
S11306408332910511F4959A08958432910511F439
S1130650969A0895859709F4979A0895CF93C82F89
S113066080FF07C061E070E083E090E00E94EE014B
S113067006C060E070E083E090E00E94EE01C1FFFC
S113068007C061E070E082E090E00E94EE0106C0E5
S113069060E070E082E090E00E94EE01C2FF07C0DB
S11306A061E070E081E090E00E94EE0106C060E04D
S11306B070E081E090E00E94EE01C3FF07C061E0BA
S11306C070E080E090E00E94EE0106C060E070E01F
S11306D080E090E00E94EE01CF910895CF93C82F5F
S11306E060E070E085E090E00E94EE018C2F0E94B3
S11306F02E0361E070E084E090E00E94EE018BEF55
S113070090E00197F1F7000060E070E084E090E091
S11307100E94EE018BEF90E00197F1F70000CF917A
S1130720089580E00E946E0381E00E946E030895A4
S1130730CF93C62F813059F480E8860F82958F704D
S11307400E946E038C2F8F700E946E030CC0823047
S113075051F480EC860F82958F700E946E038C2F6B
S11307608F700E946E03CF91089580E00E942E0343
S113077085EA93E10197F1F700C0000083E00E944D
S11307806E0389EE94E00197F1F7000083E00E9484
S11307906E038EEC9AE00197F1F7000083E00E946B
S11307A06E0382E00E946E0382E00E946E0388E082
S11307B00E946E0380E00E946E038CE00E946E0330
S11307C080E00E946E0386E00E946E030895CF933A
S11307D0C82F61E070E085E090E00E94EE018C2F6C
S11307E082958F700E942E0361E070E084E090E0B7
S11307F00E94EE018BEF90E00197F1F7000060E0BA
S113080070E084E090E00E94EE018BEF90E00197AD
S1130810F1F700008C2F8F700E942E0361E070E0CE
S113082084E090E00E94EE018BEF90E00197F1F7F5
S1130830000060E070E084E090E00E94EE018BEF45
S113084090E00197F1F70000CF910895CF93DF93E3
S1130850EC018881882331F021960E94E703899175
S11308608111FBCFDF91CF9108950E94910360E045
S113087070E082E090E00E9498038BE790E00E9491
S1130880260466E070E082E090E00E94980381E82C
S113089090E00E9426040895CF93DF93209167008F
S11308A03091680080917300909174002817390783
S11308B00CF455C08091690090916A0020917500F4
S11308C03091760028173907E4F42C5F3F4F28173E
S11308D03907BCF0809165009091660083309105E2
S11308E039F482E090E0909366008093650037C00D
S11308F00497A9F581E090E09093660080936500E9
S11309002EC00E9409010E94910360E070E081E022
S113091090E00E9498038BE890E00E9426048FEFF9
S113092082BBC4E6D0E00E94090121972097D9F741
S113093012BA0E94C2000E94E400809121019091A9
S11309402201019690932201809321010E94350493
S1130950CAE0D0E00E94090121972097D9F720919D
S11309601D0130911E012F5F3F4F809167009091D0
S11309706800281739070CF453C0809169009091DE
S11309806A00209171003091720028173907E4F44D
S11309902C5F3F4F28173907BCF080916500909178
S11309A066008230910539F483E090E0909366000C
S11309B08093650035C0019799F584E090E09093A9
S11309C06600809365002CC00E94910360E070E093
S11309D081E090E00E9498038BE990E00E94260455
S11309E08FEF82BBC4E6D0E00E94090121972097D3
S11309F0D9F712BA0E94C2000E94E40080911F013C
S1130A009091200101969093200180931F010E94F0
S1130A103504CAE0D0E00E94090121972097D9F754
S1130A20DF91CF91089580916500909166008130A7
S1130A30910509F069C08091670090916800823047
S1130A409105E4F12091690030916A002830310564
S1130A500CF04AC0019790936800809367002F5F61
S1130A603F4F30936A00209369008830910531F438
S1130A701092620080E880931C010DC0089734F442
S1130A8080911C01869580931C0105C080916200B1
S1130A908695809362008091630086958068809338
S1130AA063008091600086958068809360008EE189
S1130AB091E30197F1F700C000005BC180916900E8
S1130AC090916A00089784F48FEF82BB8EE191E3E2
S1130AD00197F1F700C0000012BA84E090E090930F
S1130AE066008093650045C18FEF82BB8EE191E380
S1130AF00197F1F700C0000012BA82E090E09093F1
S1130B0066008093650035C18230910509F063C0A9
S1130B108091670090916800823091050CF44BC07D
S1130B202091690030916A0022303105A4F10197C7
S1130B3090936800809367002150310930936A00D4
S1130B40209369008830910531F41092620080E8A6
S1130B5080931C010DC0089734F480911C01869584
S1130B6080931C0105C08091620086958093620089
S1130B7080916300880F816080936300809160009E
S1130B80880F8160809360008EE191E30197F1F713
S1130B9000C00000EEC08FEF82BB8EE191E30197AD
S1130BA0F1F700C0000012BA81E090E09093660073
S1130BB080936500DEC08FEF82BB8EE191E30197E5
S1130BC0F1F700C0000012BA83E090E09093660051
S1130BD080936500CEC0039709F069C080916700D7
S1130BE09091680080319105E4F52091690030917D
S1130BF06A00223031050CF44AC0019690936800D3
S1130C00809367002150310930936A002093690072
S1130C108930910531F410921C0181E080936200C7
S1130C200DC0099734F480911C01880F80931C0136
S1130C3005C080916200880F8093620080916300F8
S1130C40880F81608093630080916000880F8160C9
S1130C50809360008EE191E30197F1F700C00000FA
S1130C6088C08091690090916A00029784F08FEFA8
S1130C7082BB8EE191E30197F1F700C0000012BA44
S1130C8082E090E0909366008093650072C08FEFDD
S1130C9082BB8EE191E30197F1F700C0000012BA24
S1130CA084E090E0909366008093650062C0809138
S1130CB0670090916800803191050CF04BC0209141
S1130CC0690030916A0028303105A4F501969093AB
S1130CD06800809367002F5F3F4F30936A00209332
S1130CE069008930910531F410921C0181E08093F0
S1130CF062000DC0099734F480911C01880F809321
S1130D001C0105C080916200880F8093620080916D
S1130D106300869580688093630080916000869567
S1130D208068809360008EE191E30197F1F700C041
S1130D3000001FC08FEF82BB8EE191E30197F1F7B2
S1130D4000C0000012BA83E090E0909366008093A4
S1130D5065000FC08FEF82BB8EE191E30197F1F73D
S1130D6000C0000012BA81E090E090936600809386
S1130D7065000E944C04089599231CF40E948C0180
S1130D8008951816190614F40E94A40108959923CD
S1130D901CF40E94D50108951816190614F40E9433
S1130DA0BC01089599231CF40E942A010895181681
S1130DB0190614F40E944201089599231CF40E9418
S1130DC0730108951816190614F40E945A0108951F
S1130DD0CF93DF93CDB7DEB72C970FB6F894DEBF71
S1130DE00FBECDBF8FEF8ABB81BB80E287B982E89B
S1130DF086B90E94B5030E9409010E94910360E034
S1130E0081E00E9498038BEA90E00E9426042FEB75
S1130E1084E792E0215080409040E1F700C0000058
S1130E200E94910360E081E00E94980387EB90E0C8
S1130E300E942604EFEDF3E226E0E150F04020406A
S1130E40E1F700C0000064E082E00E94980382ECB5
S1130E5090E00E9426048FED93E2E6E081509040FA
S1130E60E040E1F700C000000E94910360E081E0EF
S1130E700E9498038FEC90E00E942604FFEB24E785
S1130E8082E0F15020408040E1F700C0000066E0BD
S1130E9082E00E9498038AED90E00E9426049FED70
S1130EA0E3E2F6E09150E040F040E1F700C00000DA
S1130EB00E94910363E081E00E94980385EE90E034
S1130EC00E9426042FED83E296E02150804090405A
S1130ED0E1F700C0000066E082E00E9498038DEE16
S1130EE090E00E942604EFEEF1E123E0E150F040AF
S1130EF02040E1F700C000000E94350482ED90E03C
S1130F0090933C0180933B011A8219821C821B82BC
S1130F101E821D8218861F821A8619861C861B86CD
S1130F2078940E94190A8EE191E30197F1F700C0C9
S1130F3000000E944900C12CD12C0F2EF0ED4F2E41
S1130F40512CF02D0F2EF2ED2F2E312CF02D0F2ED3
S1130F50F1E28F2EF1E09F2EF02D0F2EFFE1AF2E48
S1130F60F1E0BF2EF02D66246394712CC114D104DA
S1130F7029F130923C0120923B01FE013B967F0116
S1130F808E01075F1F4F9E01295F3F4FAE014B5FEC
S1130F905F4FBE016D5F7F4FCE0101960E944A0AEA
S1130FA089819A819195819591099A8389830E9477
S1130FB0BC068B819C810E94C70623C050923C01D1
S1130FC040923B01CE010B967C018E01075F1F4FBF
S1130FD09E01295F3F4FAE014B5F5F4FBE016D5FC6
S1130FE07F4F0A970E944A0A89819A819195819537
S1130FF091099A8389830E94D2068B819C810E94E5
S1131000DD060E9409010E9413058091210190913F
S11310102201059731F080911F01909120010597DD
S113102069F50E94B9000E94C2000E94E4000E9477
S1131030910360E081E00E94980382EF90E00E94B7
S1131040260460E082E00E9498038091210190913F
S11310502201059729F48CEF90E00E94260430C009
S11310608CE091E00E9426042BC00E9409010150EB
S1131070110901151105C9F70E94350466E081E0E4
S11310800E949803F4018081805D0E94E7038DE251
S11310900E94E703F5018081805D0E94E70365E01B
S11310A082E00E949803F4019081F5018081890F08
S11310B08F5C0E94E703C3018C199D096C0156CF14
S11310C008EE13E0D2CF11B88CE080B9089594EA09
S11310D096BF4FEF50E060E070E006B607FC06C034
S11310E04150510961097109C0F704C0452B462BD1
S11310F0472B11F191B1987F983011F09031F1F4B0
S113110083B984E886BF8FEF90E0A0E0B0E006B634
S113111007FC05C00197A109B109C8F704C0892BD0
S11311208A2B8B2B69F091B1987F983159F081E02B
S1131130903449F480E0089581E0089581E00895B1
S113114081E0089580E0089584E986BF80E090E01E
S113115006B604FE05C00196811521E09207C1F789
S1131160089583B984E886BF8FEF90E0A0E0B0E0F3
S113117006B607FC05C00197A109B109C8F704C068
S1131180892B8A2B8B2B39F091B1987F81E098328F
S113119019F480E0089581E0089584EC86BF8FEF10
S11311A090E0A0E0B0E006B607FC05C00197A109F5
S11311B0B109C8F704C0892B8A2B8B2B11F083B19A
S11311C0089580E0089584E886BF8FEF90E0A0E062
S11311D0B0E006B607FC05C00197A109B109C8F73C
S11311E004C0892B8A2B8B2B11F083B1089580E0E6
S11311F00895DF92EF92FF920F931F93CF93DF93A3
S1131200182FD62ED42FC52F662369F180913B0168
S11312100E946708812F0E94B10883E08A95F1F744
S1131220000080913B0181600E9467080D2F1C2FF4
S1131230C0E0D0E0ED2CF12CE1E0EE1AF108CE157F
S1131240DF0529F40E94E308F801808304C00E94AA
S1131250CD08F801808321960F5F1F4FCD1578F3D9
S11312600E94A40801C0D12C8D2DDF91CF911F9134
S11312700F91FF90EF90DF900895AB0161E00E9421
S1131280F9080895FF920F931F93CF93DF93C82F0C
S1131290062FF42E152F662391F080913B010E94B6
S11312A067088C2F0E94B108CF2DD12F10E08991AF
S11312B00E94B1081F5F1013FACF0E94A408DF91A7
S11312C0CF911F910F91FF900895CF93DF931F92B9
S11312D0CDB7DEB76983AE014F5F5F4F61E00E9417
S11312E042090F90DF91CF910895FF920F931F93BE
S11312F0CF93DF931F92CDB7DEB7F62E8A01BE01DE
S11313006F5F7F4F0E943D0921E030E0B90102C0C8
S1131310660F771FFA94E2F799816923F8016083D5
S11313200F90DF91CF911F910F91FF900895EF924D
S1131330FF920F931F93CF93DF931F92CDB7DEB726
S1131340182FE62EF42E022F442391F11982BE01A8
S11313506F5F7F4F0E943D09882351F16E2D70E02D
S11313606F1971096F5F7F4FE1E0F0E0AF0102C0D8
S1131370440F551FFA94E2F741505109062E02C05A
S1131380440F551F0A94E2F7202F30E0C90102C030
S1131390880F991F6A95E2F7BC01942F9095898173
S11313A089234623682F642B6983812F0E94650952
S11313B00F90DF91CF911F910F91FF90EF900895BF
S11313C0FF920F931F93CF93DF931F92CDB7DEB796
S11313D0182F062FF42EBE016F5F7F4F0E943D0928
S11313E0FF2059F021E030E0B90102C0660F771FF9
S11313F00A95E2F78981682B0BC021E030E0B9013E
S113140002C0660F771F0A95E2F760958981682309
S11314106983812F0E9465090F90DF91CF911F91FD
S11314200F91FF90089540E066E08BE60E94E0098A
S113143008950E94630883E08A95F1F7000087EA23
S113144091E60197F1F700C000000E94130A83ECB3
S113145099E00197F1F700C0000021E043E062E069
S11314608BE60E94970923E043E062E08AE10E9450
S1131470970964E089E10E94650923E042E064E0A1
S11314808BE10E94970920E042E064E08CE10E9435
S1131490970908958F929F92AF92BF92CF92DF9255
S11314A0EF92FF920F931F93CF93DF934C015B0155
S11314B06A01E9014DE351E06EE08BE30E94F90813
S11314C020913D0180913E0190E0922BF4019183A3
S11314D0808320913F018091400190E0922BF5019F
S11314E091838083209141018091420190E0922B6D
S11314F0F60191838083209145018091460190E01B
S1131500922B99838883209147018091480190E030
S1131510922BF801918380832091490180914A01A3
S113152090E0922BF70191838083DF91CF911F91FB
S11315300F91FF90EF90DF90CF90BF90AF909F906E
S11315408F9008954F925F926F927F928F929F92A5
S1131550AF92BF92CF92DF92EF92FF920F931F93BD
S1131560CF93DF93CDB7DEB7A4970FB6F894DEBF61
S11315700FBECDBF69877A878B879C872D873E876F
S11315804F87588BE98AFA8A0B8B1C8B20E030E05A
S1131590A901C601B5010E94BD10811117C020E048
S11315A030E0A9016FA978AD89AD9AAD0E94BD1054
S11315B081110CC020E030E0A9016BAD7CAD8DAD94
S11315C09EAD0E94BD10882309F404C2A6019501B2
S11315D0C601B5010E94DB112B013C012FA938ADD6
S11315E049AD5AADCA01B9010E94DB119B01AC019E
S11315F0C301B2010E9459102B013C012BAD3CAD3B
S11316004DAD5EADCA01B9010E94DB119B01AC0175
S1131610C301B2010E9459100E9442122B013C01E5
S11316209B01AC01C601B5010E94C1106D8B7E8B7C
S11316308F8B988FA30192016FA978AD89AD9AAD74
S11316400E94C11069837A838B839C83A3019201D6
S11316506BAD7CAD8DAD9EAD0E94C1106D837E835C
S11316608F83988760913701709138018091390197
S113167090913A0120912F01309130014091310134
S1131680509132018090770090907800A09079007A
S1131690B0907A004090330150903401609035014D
S11316A0709036010E94DB116B017C01A301920151
S11316B0C501B4010E94DB119B01AC01C701B60155
S11316C00E945810698F7A8F8B8F9C8F609177005E
S11316D0709178008091790090917A00209137017F
S11316E0309138014091390150913A018090330191
S11316F090903401A0903501B090360140902F01B4
S11317005090300160903101709032010E94DB11E1
S11317106B017C01A3019201C501B4010E94DB119C
S11317209B01AC01C701B6010E9459106D8F7E8FD9
S11317308F8F98A3609177007091780080917900E1
S113174090917A002091770030917800409179004F
S113175050917A0080902F0190903001A090310137
S1131760B090320140902F015090300160903101CF
S1131770709032010E94DB1120E030E040E05FE332
S11317800E9458106B017C01A3019201C501B401B0
S11317900E94DB119B01AC01C701B6010E945910E4
S11317A06B017C019B01AC0169817A818B819C81F5
S11317B00E94DB114B015C012D8D3E8D4F8D58A194
S11317C06D817E818F8198850E94DB119B01AC0124
S11317D0C501B4010E94581069A37AA38BA39CA3EA
S11317E0298D3A8D4B8D5C8D6D817E818F8198859D
S11317F00E94DB114B015C01A70196016D897E8972
S11318008F89988D0E94DB119B01AC01C501B40145
S11318100E9458102B013C012D8D3E8D4F8D58A1F7
S11318206D897E898F89988D0E94DB116B017C0103
S1131830298D3A8D4B8D5C8D69817A818B819C8158
S11318400E94DB119B01AC01C701B6010E94581034
S11318504B015C01C0902B01D0902C01E0902D0134
S1131860F0902E012DEC3CEC4CE45EE369A17AA1EE
S11318708BA19CA10E94DB112AE83BE446E85CE3CF
S11318800E94DB11A70196010E94591060932B015D
S113189070932C0180932D0190932E01C090270109
S11318A0D0902801E0902901F0902A012DEC3CEC25
S11318B04CE45EE3C301B2010E94DB112AE83BE47D
S11318C046E85CE30E94DB11A70196010E945910CF
S11318D060932701709328018093290190932A0132
S11318E0C0902301D0902401E0902501F0902601BE
S11318F02DEC3CEC4CE45EE3C501B4010E94DB1129
S11319002AE83BE446E85CE30E94DB11A701960168
S11319100E94591060932301709324018093250140
S11319209093260120912B0130912C0140912D019F
S113193050912E0169857A858B859C850E9459106A
S113194069837A838B839C832091270130912801BA
S11319504091290150912A016D857E858F85988952
S11319600E9459106D837E838F8398872091230171
S113197030912401409125015091260169897A8989
S11319808B899C890E9459106B017C0129A13AA181
S11319904BA15CA169817A818B819C810E94591041
S11319A069877A878B879C87A30192016D817E81E9
S11319B08F8198850E9459106D877E878F87988BB9
S11319C0A5019401C701B6010E945910698B7A8B55
S11319D08B8B9C8B2AE83BE446E05CE369857A8543
S11319E08B859C850E94DB1169837A838B839C831E
S11319F02AE83BE446E05CE36D857E858F85988923
S1131A000E94DB116D837E838F8398872AE83BE4F1
S1131A1046E05CE369897A898B899C890E94DB11A1
S1131A2069877A878B879C87E0907700F0907800AD
S1131A300091790010917A00ED86FE860F87188B4D
S1131A40E0903701F09038010091390110913A018A
S1131A50E98AFA8A0B8B1C8BE0903301F0903401F5
S1131A600091350110913601ED8AFE8A0F8B188F93
S1131A7040902F01509030016090310170903201FC
S1131A80C0907700D0907800E0907900F0907A00D0
S1131A9069897A898B899C89905829813A814B81FB
S1131AA05C810E94DB114B015C012D813E814F81E1
S1131AB058856D897E898F89988D0E94DB119B01E1
S1131AC0AC01C501B4010E9458104B015C01298589
S1131AD03A854B855C85C301B2010E94DB119B01F1
S1131AE0AC01C501B4010E945810A70196010E94DF
S1131AF059106093770070937800809379009093E5
S1131B007A0040902F015090300160903101709024
S1131B103201C0903701D0903801E0903901F09043
S1131B203A0129813A814B815C816D857E858F855F
S1131B3098890E94DB114B015C0129853A854B850C
S1131B405C856D897E898F89988D0E94DB119B014C
S1131B50AC01C501B4010E9459104B015C012D81F7
S1131B603E814F815885C301B2010E94DB119B0164
S1131B70AC01C501B4010E945810A70196010E944E
S1131B805910609337017093380180933901909311
S1131B903A0140902F0150903001609031017090D3
S1131BA03201C0903301D0903401E0903501F090BF
S1131BB036012D813E814F8158856D857E858F85C7
S1131BC098890E94DB114B015C0129853A854B857C
S1131BD05C8569897A898B899C890E94DB119B01C8
S1131BE0AC01C501B4010E9458104B015C0129816C
S1131BF03A814B815C81C301B2010E94DB119B01DC
S1131C00AC01C501B4010E945910A70196010E94BC
S1131C10591060933301709334018093350190938C
S1131C203601C0902F01D0903001E0903101F09046
S1131C30320129853A854B855C856D857E858F8546
S1131C4098890E94DB114B015C012D813E814F81FB
S1131C50588569897A898B899C890E94DB119B014B
S1131C60AC01C501B4010E9459104B015C012981EA
S1131C703A814B815C816D897E898F89988D0E9420
S1131C80DB119B01AC01C501B4010E945810A701EE
S1131C9096010E94591060932F0170933001809334
S1131CA031019093320160917700709178008091B6
S1131CB0790090917A0020917700309178004091DA
S1131CC0790050917A008090370190903801A0906B
S1131CD03901B0903A01409037015090380160903A
S1131CE0390170903A01E0903301F0903401009191
S1131CF0350110913601E982FA820B831C83E0904E
S1131D003301F09034010091350110913601ED82D8
S1131D10FE820F831887E0902F01F090300100912C
S1131D20310110913201E986FA860B871C87E09015
S1131D302F01F09030010091310110913201ED86B4
S1131D40FE860F87188B0E94DB116B017C01A301B7
S1131D509201C501B4010E94DB119B01AC01C701D2
S1131D60B6010E9459106B017C012D813E814F8187
S1131D70588569817A818B819C810E94DB119B014A
S1131D80AC01C701B6010E9459106B017C012D857D
S1131D903E854F85588969857A858B859C850E9407
S1131DA0DB119B01AC01C701B6010E9459100E94CE
S1131DB042126B017C0160917700709178008091F0
S1131DC0790090917A00A70196010E94C110609356
S1131DD07700709378008093790090937A006091F3
S1131DE03701709138018091390190913A01A7012E
S1131DF096010E94C110609337017093380180935B
S1131E00390190933A0160913301709134018091CA
S1131E10350190913601A70196010E94C11060938B
S1131E2033017093340180933501909336016091AE
S1131E302F01709130018091310190913201A701FD
S1131E4096010E94C11060932F017093300180931A
S1131E50310190933201A4960FB6F894DEBF0FBE01
S1131E60CDBFDF91CF911F910F91FF90EF90DF9045
S1131E70CF90BF90AF909F908F907F906F905F9026
S1131E804F9008954F925F926F927F928F929F929C
S1131E90AF92BF92CF92DF92EF92FF920F931F9374
S1131EA0CF93DF93CDB7DEB728970FB6F894DEBF94
S1131EB00FBECDBF4DE351E060E08AE30E94750997
S1131EC080913D01811105C083E08A95F1F70000FE
S1131ED0F1CF4DE351E06EE08BE30E94F90880916D
S1131EE03D0160913E0100913F019090400180903E
S1131EF0410110914201709045016090460150905B
S1131F00470140904801F0904901E0904A0170E097
S1131F10782B882777FD8095982F0E942B1120E03D
S1131F2030E040E858E30E94DB115B016C016E2D48
S1131F3070E07F29635E7F4F882777FD8095982F17
S1131F400E942B1123E333E343E851E40E94C110C0
S1131F5024E33AEF4EE85CE30E94DB1169837A8361
S1131F608B839C83642D70E07529695071098827DF
S1131F7077FD8095982F0E942B1123E333E343E8E8
S1131F8051E40E94C11024E33AEF4EE85CE30E945E
S1131F90DB116D837E838F839887662D70E07729AC
S1131FA0665D7F4F882777FD8095982F0E942B11BF
S1131FB023E333E343E851E40E94C11024E33AEFFE
S1131FC04EE85CE30E94DB112B013C01612F70E0C1
S1131FD07829882777FD8095982F0E942B1120E07F
S1131FE030E040E858E30E94DB119F938F937F9386
S1131FF06F93692D70E0702B882777FD8095982F5B
S11320000E942B1120E030E040E858E30E94DB11ED
S11320109F938F937F936F93E980FA800B811C8148
S11320202D813E814F815885C301B2010E94A20ACD
S11320300FB6F894DEBF0FBECDBF28960FB6F89446
S1132040DEBF0FBECDBFDF91CF911F910F91FF90E7
S1132050EF90DF90CF90BF90AF909F908F907F9044
S11320606F905F904F9008951F920F920FB60F924A
S113207011242F933F934F935F936F937F938F9389
S11320809F93AF93BF93EF93FF930E94420FFF91EF
S1132090EF91BF91AF919F918F917F916F915F91DC
S11320A04F913F912F910F900FBE0F901F90189555
S11320B05058BB27AA270ED044C135D130F03AD1AD
S11320C020F031F49F3F11F41EF42AC10EF4E09580
S11320D0E7FB20C1E92F46D180F3BA1762077307E3
S11320E08407950718F071F49EF55EC10EF4E0952F
S11320F00B2EBA2FA02D0B01B90190010C01CA01BE
S1132100A0011124FF27591B99F0593F50F4503E68
S113211068F11A16F040A22F232F342F4427585F5A
S1132120F3CF469537952795A795F0405395C9F772
S11321307EF41F16BA0B620B730B840BBAF091502A
S1132140A1F0FF0FBB1F661F771F881FC2F70EC0C9
S1132150BA0F621F731F841F48F48795779567959C
S1132160B795F7959E3F08F0B3CF9395880F08F085
S11321709927EE0F979587950895A8D008F481E0E4
S113218008950CD0DEC0D6D040F0CDD030F021F48C
S11321905F3F19F0BFC0511108C1C2C0E3D098F32A
S11321A09923C9F35523B1F3951B550BBB27AA27D4
S11321B062177307840738F09F5F5F4F220F331F46
S11321C0441FAA1FA9F333D00E2E3AF0E0E830D012
S11321D091505040E695001CCAF729D0FE2F27D015
S11321E0660F771F881FBB1F261737074807AB07E3
S11321F0B0E809F0BB0B802DBF01FF2793585F4F58
S11322002AF09E3F510568F085C0CFC05F3FECF3D4
S1132210983EDCF3869577956795B795F7959F5F1C
S1132220C9F7880F911D9695879597F90895E1E070
S1132230660F771F881FBB1F621773078407BA07CF
S113224020F0621B730B840BBA0BEE1F88F7E0952A
S11322500895E89409C097FB3EF490958095709595
S113226061957F4F8F4F9F4F9923A9F0F92F96E9DE
S1132270BB279395F695879577956795B795F11153
S1132280F8CFFAF4BB0F11F460FF1BC06F5F7F4FF0
S11322908F4F9F4F16C0882311F096E911C0772302
S11322A021F09EE8872F762F05C0662371F096E80B
S11322B0862F70E060E02AF09A95660F771F881FDA
S11322C0DAF7880F9695879597F90895990F00087E
S11322D0550FAA0BE0E8FEEF16161706E807F907F4
S11322E0C0F012161306E407F50798F0621B730B8F
S11322F0840B950B39F40A2661F0232B242B252B10
S113230021F408950A2609F4A140A6958FEF811DB2
S1132310811D089597F99F6780E870E060E0089553
S11323209FEF80EC089500240A94161617061806E9
S11323300906089500240A941216130614060506C5
S11323400895092E0394000C11F4882352F0BB0F56
S113235040F4BF2B11F460FF04C06F5F7F4F8F4FB9
S11323609F4F089557FD9058440F551F59F05F3FF4
S113237071F04795880F97FB991F61F09F3F79F0A3
S113238087950895121613061406551FF2CF469525
S1132390F1DF08C0161617061806991FF1CF8695A7
S11323A07105610508940895E894BB27662777278B
S11323B0CB0197F908950BD0C4CFB5DF28F0BADF6D
S11323C018F0952309F0A6CFABCF1124EECFCADFC6
S11323D0A0F3959FD1F3950F50E0551F629FF00134
S11323E0729FBB27F00DB11D639FAA27F00DB11D8D
S11323F0AA1F649F6627B00DA11D661F829F222716
S1132400B00DA11D621F739FB00DA11D621F839F9C
S1132410A00D611D221F749F3327A00D611D231F72
S1132420849F600D211D822F762F6A2F11249F57C0
S113243050408AF0E1F088234AF0EE0FFF1FBB1FE3
S1132440661F771F881F91505040A9F79E3F510582
S113245070F060CFAACF5F3FECF3983EDCF3869533
S113246077956795B795F795E7959F5FC1F7FE2B2D
S1132470880F911D9695879597F9089511F40EF498
S11324804FCF3EC077DFD0F39923D9F3CEF39F57D4
S1132490550B87FF43D00024A0E640EA9001805802
S11324A05695979528F4805C660F771F881F20F057
S11324B026173707480730F4621B730B840B202957
S11324C031294A2BA69517940794202531254A27AC
S11324D058F7660F771F881F20F02617370748071D
S11324E030F4620B730B840B200D311D411DA0953C
S11324F081F7B901842F9158880F9695879508958F
S11325009F3F31F0915020F4879577956795B79563
S1132510880F911D9695879597F90895915050408D
S1112520660F771F881FD2F70895F894FFCF37
S113252EEFFF01EFFF010009000400FFC380FFC3AA
S113253E010200100002000000803F47616D65201B
S113254E002072756E6E696E672E00506C6179652F
S113255E7220312077696E73202100506C61796589
S113256E7220322077696E7320210057656C636F79
S113257E6D65206F5F4F00446F6E27742064726F19
S113258E700074686520626F6D62202D5F2D003CB3
S113259E2D506C61796572203200506C61796572D0
S11325AE20312D3E005265616479203F00476F2033
S11325BE210047616D65204F56455200506C61797C
S11325CE657220312077696E73212100506C617918
S10F25DE657220322077696E73212100A1
S9030000FC
